{
  "_format": "hh-sol-artifact-1",
  "contractName": "RashmiCoin",
  "sourceName": "contracts/RashmiCoin.sol",
  "abi": [
    {
      "inputs": [
        {
          "internalType": "address",
          "name": "initialOwner",
          "type": "address"
        }
      ],
      "stateMutability": "nonpayable",
      "type": "constructor"
    },
    {
      "inputs": [
        {
          "internalType": "address",
          "name": "spender",
          "type": "address"
        },
        {
          "internalType": "uint256",
          "name": "allowance",
          "type": "uint256"
        },
        {
          "internalType": "uint256",
          "name": "needed",
          "type": "uint256"
        }
      ],
      "name": "ERC20InsufficientAllowance",
      "type": "error"
    },
    {
      "inputs": [
        {
          "internalType": "address",
          "name": "sender",
          "type": "address"
        },
        {
          "internalType": "uint256",
          "name": "balance",
          "type": "uint256"
        },
        {
          "internalType": "uint256",
          "name": "needed",
          "type": "uint256"
        }
      ],
      "name": "ERC20InsufficientBalance",
      "type": "error"
    },
    {
      "inputs": [
        {
          "internalType": "address",
          "name": "approver",
          "type": "address"
        }
      ],
      "name": "ERC20InvalidApprover",
      "type": "error"
    },
    {
      "inputs": [
        {
          "internalType": "address",
          "name": "receiver",
          "type": "address"
        }
      ],
      "name": "ERC20InvalidReceiver",
      "type": "error"
    },
    {
      "inputs": [
        {
          "internalType": "address",
          "name": "sender",
          "type": "address"
        }
      ],
      "name": "ERC20InvalidSender",
      "type": "error"
    },
    {
      "inputs": [
        {
          "internalType": "address",
          "name": "spender",
          "type": "address"
        }
      ],
      "name": "ERC20InvalidSpender",
      "type": "error"
    },
    {
      "inputs": [
        {
          "internalType": "address",
          "name": "owner",
          "type": "address"
        }
      ],
      "name": "OwnableInvalidOwner",
      "type": "error"
    },
    {
      "inputs": [
        {
          "internalType": "address",
          "name": "account",
          "type": "address"
        }
      ],
      "name": "OwnableUnauthorizedAccount",
      "type": "error"
    },
    {
      "anonymous": false,
      "inputs": [
        {
          "indexed": true,
          "internalType": "address",
          "name": "owner",
          "type": "address"
        },
        {
          "indexed": true,
          "internalType": "address",
          "name": "spender",
          "type": "address"
        },
        {
          "indexed": false,
          "internalType": "uint256",
          "name": "value",
          "type": "uint256"
        }
      ],
      "name": "Approval",
      "type": "event"
    },
    {
      "anonymous": false,
      "inputs": [
        {
          "indexed": true,
          "internalType": "address",
          "name": "previousOwner",
          "type": "address"
        },
        {
          "indexed": true,
          "internalType": "address",
          "name": "newOwner",
          "type": "address"
        }
      ],
      "name": "OwnershipTransferred",
      "type": "event"
    },
    {
      "anonymous": false,
      "inputs": [
        {
          "indexed": true,
          "internalType": "address",
          "name": "from",
          "type": "address"
        },
        {
          "indexed": true,
          "internalType": "address",
          "name": "to",
          "type": "address"
        },
        {
          "indexed": false,
          "internalType": "uint256",
          "name": "value",
          "type": "uint256"
        }
      ],
      "name": "Transfer",
      "type": "event"
    },
    {
      "inputs": [],
      "name": "MAX_SUPPLY",
      "outputs": [
        {
          "internalType": "uint256",
          "name": "",
          "type": "uint256"
        }
      ],
      "stateMutability": "view",
      "type": "function"
    },
    {
      "inputs": [
        {
          "internalType": "address",
          "name": "owner",
          "type": "address"
        },
        {
          "internalType": "address",
          "name": "spender",
          "type": "address"
        }
      ],
      "name": "allowance",
      "outputs": [
        {
          "internalType": "uint256",
          "name": "",
          "type": "uint256"
        }
      ],
      "stateMutability": "view",
      "type": "function"
    },
    {
      "inputs": [
        {
          "internalType": "address",
          "name": "spender",
          "type": "address"
        },
        {
          "internalType": "uint256",
          "name": "value",
          "type": "uint256"
        }
      ],
      "name": "approve",
      "outputs": [
        {
          "internalType": "bool",
          "name": "",
          "type": "bool"
        }
      ],
      "stateMutability": "nonpayable",
      "type": "function"
    },
    {
      "inputs": [
        {
          "internalType": "address",
          "name": "account",
          "type": "address"
        }
      ],
      "name": "balanceOf",
      "outputs": [
        {
          "internalType": "uint256",
          "name": "",
          "type": "uint256"
        }
      ],
      "stateMutability": "view",
      "type": "function"
    },
    {
      "inputs": [
        {
          "internalType": "uint256",
          "name": "value",
          "type": "uint256"
        }
      ],
      "name": "burn",
      "outputs": [],
      "stateMutability": "nonpayable",
      "type": "function"
    },
    {
      "inputs": [
        {
          "internalType": "address",
          "name": "account",
          "type": "address"
        },
        {
          "internalType": "uint256",
          "name": "value",
          "type": "uint256"
        }
      ],
      "name": "burnFrom",
      "outputs": [],
      "stateMutability": "nonpayable",
      "type": "function"
    },
    {
      "inputs": [],
      "name": "decimals",
      "outputs": [
        {
          "internalType": "uint8",
          "name": "",
          "type": "uint8"
        }
      ],
      "stateMutability": "view",
      "type": "function"
    },
    {
      "inputs": [
        {
          "internalType": "address",
          "name": "to",
          "type": "address"
        },
        {
          "internalType": "uint256",
          "name": "amount",
          "type": "uint256"
        }
      ],
      "name": "mint",
      "outputs": [],
      "stateMutability": "nonpayable",
      "type": "function"
    },
    {
      "inputs": [],
      "name": "name",
      "outputs": [
        {
          "internalType": "string",
          "name": "",
          "type": "string"
        }
      ],
      "stateMutability": "view",
      "type": "function"
    },
    {
      "inputs": [],
      "name": "owner",
      "outputs": [
        {
          "internalType": "address",
          "name": "",
          "type": "address"
        }
      ],
      "stateMutability": "view",
      "type": "function"
    },
    {
      "inputs": [],
      "name": "renounceOwnership",
      "outputs": [],
      "stateMutability": "nonpayable",
      "type": "function"
    },
    {
      "inputs": [],
      "name": "symbol",
      "outputs": [
        {
          "internalType": "string",
          "name": "",
          "type": "string"
        }
      ],
      "stateMutability": "view",
      "type": "function"
    },
    {
      "inputs": [],
      "name": "totalSupply",
      "outputs": [
        {
          "internalType": "uint256",
          "name": "",
          "type": "uint256"
        }
      ],
      "stateMutability": "view",
      "type": "function"
    },
    {
      "inputs": [
        {
          "internalType": "address",
          "name": "to",
          "type": "address"
        },
        {
          "internalType": "uint256",
          "name": "value",
          "type": "uint256"
        }
      ],
      "name": "transfer",
      "outputs": [
        {
          "internalType": "bool",
          "name": "",
          "type": "bool"
        }
      ],
      "stateMutability": "nonpayable",
      "type": "function"
    },
    {
      "inputs": [
        {
          "internalType": "address",
          "name": "from",
          "type": "address"
        },
        {
          "internalType": "address",
          "name": "to",
          "type": "address"
        },
        {
          "internalType": "uint256",
          "name": "value",
          "type": "uint256"
        }
      ],
      "name": "transferFrom",
      "outputs": [
        {
          "internalType": "bool",
          "name": "",
          "type": "bool"
        }
      ],
      "stateMutability": "nonpayable",
      "type": "function"
    },
    {
      "inputs": [
        {
          "internalType": "address",
          "name": "newOwner",
          "type": "address"
        }
      ],
      "name": "transferOwnership",
      "outputs": [],
      "stateMutability": "nonpayable",
      "type": "function"
    }
  ],
  "bytecode": "0x60806040523480156200001157600080fd5b5060405162000e9038038062000e908339810160408190526200003491620002b4565b806040518060400160405280600a8152602001692930b9b436b4a1b7b4b760b11b8152506040518060400160405280600381526020016252534360e81b81525081600390816200008591906200038d565b5060046200009482826200038d565b5050506001600160a01b038116620000c757604051631e4fbdf760e01b8152600060048201526024015b60405180910390fd5b620000d281620000f1565b50620000ea816a084595161401484a00000062000143565b5062000481565b600580546001600160a01b038381166001600160a01b0319831681179093556040519116919082907f8be0079c531659141344cd1fd0a4f28419497f9722a3daafe3b4186f6b6457e090600090a35050565b6001600160a01b0382166200016f5760405163ec442f0560e01b815260006004820152602401620000be565b6200017d6000838362000181565b5050565b6001600160a01b038316620001b0578060026000828254620001a4919062000459565b90915550620002249050565b6001600160a01b03831660009081526020819052604090205481811015620002055760405163391434e360e21b81526001600160a01b03851660048201526024810182905260448101839052606401620000be565b6001600160a01b03841660009081526020819052604090209082900390555b6001600160a01b038216620002425760028054829003905562000261565b6001600160a01b03821660009081526020819052604090208054820190555b816001600160a01b0316836001600160a01b03167fddf252ad1be2c89b69c2b068fc378daa952ba7f163c4a11628f55a4df523b3ef83604051620002a791815260200190565b60405180910390a3505050565b600060208284031215620002c757600080fd5b81516001600160a01b0381168114620002df57600080fd5b9392505050565b634e487b7160e01b600052604160045260246000fd5b600181811c908216806200031157607f821691505b6020821081036200033257634e487b7160e01b600052602260045260246000fd5b50919050565b601f82111562000388576000816000526020600020601f850160051c81016020861015620003635750805b601f850160051c820191505b8181101562000384578281556001016200036f565b5050505b505050565b81516001600160401b03811115620003a957620003a9620002e6565b620003c181620003ba8454620002fc565b8462000338565b602080601f831160018114620003f95760008415620003e05750858301515b600019600386901b1c1916600185901b17855562000384565b600085815260208120601f198616915b828110156200042a5788860151825594840194600190910190840162000409565b5085821015620004495787850151600019600388901b60f8161c191681555b5050505050600190811b01905550565b808201808211156200047b57634e487b7160e01b600052601160045260246000fd5b92915050565b6109ff80620004916000396000f3fe608060405234801561001057600080fd5b50600436106101005760003560e01c806370a082311161009757806395d89b411161006657806395d89b4114610213578063a9059cbb1461021b578063dd62ed3e1461022e578063f2fde38b1461026757600080fd5b806370a08231146101b4578063715018a6146101dd57806379cc6790146101e55780638da5cb5b146101f857600080fd5b8063313ce567116100d3578063313ce5671461016b57806332cb6b0c1461017a57806340c10f191461018c57806342966c68146101a157600080fd5b806306fdde0314610105578063095ea7b31461012357806318160ddd1461014657806323b872dd14610158575b600080fd5b61010d61027a565b60405161011a919061082f565b60405180910390f35b61013661013136600461089a565b61030c565b604051901515815260200161011a565b6002545b60405190815260200161011a565b6101366101663660046108c4565b610326565b6040516012815260200161011a565b61014a6a084595161401484a00000081565b61019f61019a36600461089a565b61034a565b005b61019f6101af366004610900565b6103c7565b61014a6101c2366004610919565b6001600160a01b031660009081526020819052604090205490565b61019f6103d4565b61019f6101f336600461089a565b6103e8565b6005546040516001600160a01b03909116815260200161011a565b61010d6103fd565b61013661022936600461089a565b61040c565b61014a61023c36600461093b565b6001600160a01b03918216600090815260016020908152604080832093909416825291909152205490565b61019f610275366004610919565b61041a565b6060600380546102899061096e565b80601f01602080910402602001604051908101604052809291908181526020018280546102b59061096e565b80156103025780601f106102d757610100808354040283529160200191610302565b820191906000526020600020905b8154815290600101906020018083116102e557829003601f168201915b5050505050905090565b60003361031a818585610455565b60019150505b92915050565b600033610334858285610467565b61033f8585856104e6565b506001949350505050565b610352610545565b6a084595161401484a0000008161036860025490565b61037291906109a8565b11156103b95760405162461bcd60e51b81526020600482015260116024820152701494d0ce8818d85c08195e18d959591959607a1b60448201526064015b60405180910390fd5b6103c38282610572565b5050565b6103d133826105a8565b50565b6103dc610545565b6103e660006105de565b565b6103f3823383610467565b6103c382826105a8565b6060600480546102899061096e565b60003361031a8185856104e6565b610422610545565b6001600160a01b03811661044c57604051631e4fbdf760e01b8152600060048201526024016103b0565b6103d1816105de565b6104628383836001610630565b505050565b6001600160a01b038381166000908152600160209081526040808320938616835292905220546000198110156104e057818110156104d157604051637dc7a0d960e11b81526001600160a01b038416600482015260248101829052604481018390526064016103b0565b6104e084848484036000610630565b50505050565b6001600160a01b03831661051057604051634b637e8f60e11b8152600060048201526024016103b0565b6001600160a01b03821661053a5760405163ec442f0560e01b8152600060048201526024016103b0565b610462838383610705565b6005546001600160a01b031633146103e65760405163118cdaa760e01b81523360048201526024016103b0565b6001600160a01b03821661059c5760405163ec442f0560e01b8152600060048201526024016103b0565b6103c360008383610705565b6001600160a01b0382166105d257604051634b637e8f60e11b8152600060048201526024016103b0565b6103c382600083610705565b600580546001600160a01b038381166001600160a01b0319831681179093556040519116919082907f8be0079c531659141344cd1fd0a4f28419497f9722a3daafe3b4186f6b6457e090600090a35050565b6001600160a01b03841661065a5760405163e602df0560e01b8152600060048201526024016103b0565b6001600160a01b03831661068457604051634a1406b160e11b8152600060048201526024016103b0565b6001600160a01b03808516600090815260016020908152604080832093871683529290522082905580156104e057826001600160a01b0316846001600160a01b03167f8c5be1e5ebec7d5bd14f71427d1e84f3dd0314c0f7b2291e5b200ac8c7c3b925846040516106f791815260200190565b60405180910390a350505050565b6001600160a01b03831661073057806002600082825461072591906109a8565b909155506107a29050565b6001600160a01b038316600090815260208190526040902054818110156107835760405163391434e360e21b81526001600160a01b038516600482015260248101829052604481018390526064016103b0565b6001600160a01b03841660009081526020819052604090209082900390555b6001600160a01b0382166107be576002805482900390556107dd565b6001600160a01b03821660009081526020819052604090208054820190555b816001600160a01b0316836001600160a01b03167fddf252ad1be2c89b69c2b068fc378daa952ba7f163c4a11628f55a4df523b3ef8360405161082291815260200190565b60405180910390a3505050565b60006020808352835180602085015260005b8181101561085d57858101830151858201604001528201610841565b506000604082860101526040601f19601f8301168501019250505092915050565b80356001600160a01b038116811461089557600080fd5b919050565b600080604083850312156108ad57600080fd5b6108b68361087e565b946020939093013593505050565b6000806000606084860312156108d957600080fd5b6108e28461087e565b92506108f06020850161087e565b9150604084013590509250925092565b60006020828403121561091257600080fd5b5035919050565b60006020828403121561092b57600080fd5b6109348261087e565b9392505050565b6000806040838503121561094e57600080fd5b6109578361087e565b91506109656020840161087e565b90509250929050565b600181811c9082168061098257607f821691505b6020821081036109a257634e487b7160e01b600052602260045260246000fd5b50919050565b8082018082111561032057634e487b7160e01b600052601160045260246000fdfea2646970667358221220547c3b0012bf86c0f5b48702aeede1beb5eba65705f17b600e8ceb3d70ead9ca64736f6c63430008180033",
  "linkReferences": {},
  "deployedLinkReferences": {}
}